{
  "contractName": "data",
  "abi": [
    {
      "inputs": [],
      "stateMutability": "nonpayable",
      "type": "constructor"
    },
    {
      "inputs": [],
      "name": "doctorCount",
      "outputs": [
        {
          "internalType": "uint256",
          "name": "",
          "type": "uint256"
        }
      ],
      "stateMutability": "view",
      "type": "function",
      "constant": true
    },
    {
      "inputs": [
        {
          "internalType": "uint256",
          "name": "",
          "type": "uint256"
        }
      ],
      "name": "doctorList",
      "outputs": [
        {
          "internalType": "address",
          "name": "",
          "type": "address"
        }
      ],
      "stateMutability": "view",
      "type": "function",
      "constant": true
    },
    {
      "inputs": [],
      "name": "owner",
      "outputs": [
        {
          "internalType": "address",
          "name": "",
          "type": "address"
        }
      ],
      "stateMutability": "view",
      "type": "function",
      "constant": true
    },
    {
      "inputs": [],
      "name": "patientCount",
      "outputs": [
        {
          "internalType": "uint256",
          "name": "",
          "type": "uint256"
        }
      ],
      "stateMutability": "view",
      "type": "function",
      "constant": true
    },
    {
      "inputs": [
        {
          "internalType": "uint256",
          "name": "",
          "type": "uint256"
        }
      ],
      "name": "patientList",
      "outputs": [
        {
          "internalType": "address",
          "name": "",
          "type": "address"
        }
      ],
      "stateMutability": "view",
      "type": "function",
      "constant": true
    },
    {
      "inputs": [
        {
          "internalType": "string",
          "name": "_ic",
          "type": "string"
        },
        {
          "internalType": "string",
          "name": "_name",
          "type": "string"
        },
        {
          "internalType": "string",
          "name": "_phone",
          "type": "string"
        },
        {
          "internalType": "string",
          "name": "_gender",
          "type": "string"
        },
        {
          "internalType": "string",
          "name": "_dob",
          "type": "string"
        },
        {
          "internalType": "string",
          "name": "_bloodgroup",
          "type": "string"
        },
        {
          "internalType": "string",
          "name": "_allergies",
          "type": "string"
        },
        {
          "internalType": "string",
          "name": "_medication",
          "type": "string"
        }
      ],
      "name": "setDetails",
      "outputs": [],
      "stateMutability": "nonpayable",
      "type": "function"
    },
    {
      "inputs": [
        {
          "internalType": "string",
          "name": "_ic",
          "type": "string"
        },
        {
          "internalType": "string",
          "name": "_name",
          "type": "string"
        },
        {
          "internalType": "string",
          "name": "_phone",
          "type": "string"
        },
        {
          "internalType": "string",
          "name": "_gender",
          "type": "string"
        },
        {
          "internalType": "string",
          "name": "_dob",
          "type": "string"
        },
        {
          "internalType": "string",
          "name": "_qualification",
          "type": "string"
        }
      ],
      "name": "setDoctor",
      "outputs": [],
      "stateMutability": "nonpayable",
      "type": "function"
    },
    {
      "inputs": [
        {
          "internalType": "address",
          "name": "_address",
          "type": "address"
        }
      ],
      "name": "givePermission",
      "outputs": [
        {
          "internalType": "bool",
          "name": "success",
          "type": "bool"
        }
      ],
      "stateMutability": "nonpayable",
      "type": "function"
    },
    {
      "inputs": [],
      "name": "getPatients",
      "outputs": [
        {
          "internalType": "address[]",
          "name": "",
          "type": "address[]"
        }
      ],
      "stateMutability": "view",
      "type": "function",
      "constant": true
    },
    {
      "inputs": [],
      "name": "getDoctors",
      "outputs": [
        {
          "internalType": "address[]",
          "name": "",
          "type": "address[]"
        }
      ],
      "stateMutability": "view",
      "type": "function",
      "constant": true
    },
    {
      "inputs": [
        {
          "internalType": "address",
          "name": "_address",
          "type": "address"
        }
      ],
      "name": "searchPatientDemographic",
      "outputs": [
        {
          "internalType": "string",
          "name": "",
          "type": "string"
        },
        {
          "internalType": "string",
          "name": "",
          "type": "string"
        },
        {
          "internalType": "string",
          "name": "",
          "type": "string"
        },
        {
          "internalType": "string",
          "name": "",
          "type": "string"
        },
        {
          "internalType": "string",
          "name": "",
          "type": "string"
        }
      ],
      "stateMutability": "view",
      "type": "function",
      "constant": true
    },
    {
      "inputs": [
        {
          "internalType": "address",
          "name": "_address",
          "type": "address"
        }
      ],
      "name": "searchPatientMedical",
      "outputs": [
        {
          "internalType": "string",
          "name": "",
          "type": "string"
        },
        {
          "internalType": "string",
          "name": "",
          "type": "string"
        },
        {
          "internalType": "string",
          "name": "",
          "type": "string"
        }
      ],
      "stateMutability": "view",
      "type": "function",
      "constant": true
    },
    {
      "inputs": [
        {
          "internalType": "address",
          "name": "_address",
          "type": "address"
        }
      ],
      "name": "searchDoctor",
      "outputs": [
        {
          "internalType": "string",
          "name": "",
          "type": "string"
        },
        {
          "internalType": "string",
          "name": "",
          "type": "string"
        },
        {
          "internalType": "string",
          "name": "",
          "type": "string"
        },
        {
          "internalType": "string",
          "name": "",
          "type": "string"
        },
        {
          "internalType": "string",
          "name": "",
          "type": "string"
        },
        {
          "internalType": "string",
          "name": "",
          "type": "string"
        }
      ],
      "stateMutability": "view",
      "type": "function",
      "constant": true
    },
    {
      "inputs": [],
      "name": "getPatientCount",
      "outputs": [
        {
          "internalType": "uint256",
          "name": "",
          "type": "uint256"
        }
      ],
      "stateMutability": "view",
      "type": "function",
      "constant": true
    },
    {
      "inputs": [],
      "name": "getDoctorCount",
      "outputs": [
        {
          "internalType": "uint256",
          "name": "",
          "type": "uint256"
        }
      ],
      "stateMutability": "view",
      "type": "function",
      "constant": true
    }
  ],
  "bytecode": "0x60806040526000600855600060095534801561001a57600080fd5b50336000806101000a81548173ffffffffffffffffffffffffffffffffffffffff021916908373ffffffffffffffffffffffffffffffffffffffff160217905550611f898061006a6000396000f3fe608060405234801561001057600080fd5b50600436106100f55760003560e01c806378522bc411610097578063b13d5d9411610066578063b13d5d941461028e578063babb1d41146102ac578063c190665b146102dc578063caee6c85146102fa576100f5565b806378522bc41461021657806379111c1c146102345780638da5cb5b14610252578063a0303c4114610270576100f5565b80632b3b92c3116100d35780632b3b92c31461017a5780633bc98280146101965780633d391f70146101ca57806341f97c09146101fa576100f5565b8063127ca4b4146100fa57806312ad1c371461012a5780632a825ba014610148575b600080fd5b610114600480360381019061010f9190611674565b61032f565b60405161012191906116e2565b60405180910390f35b61013261036e565b60405161013f91906117bb565b60405180910390f35b610162600480360381019061015d9190611809565b6103fc565b604051610171939291906118cf565b60405180910390f35b610194600480360381019061018f9190611a50565b610695565b005b6101b060048036038101906101ab9190611809565b6109ad565b6040516101c1959493929190611be6565b60405180910390f35b6101e460048036038101906101df9190611809565b610d6f565b6040516101f19190611c77565b60405180910390f35b610214600480360381019061020f9190611c92565b610e0f565b005b61021e61105e565b60405161022b9190611dd6565b60405180910390f35b61023c611064565b6040516102499190611dd6565b60405180910390f35b61025a61106e565b60405161026791906116e2565b60405180910390f35b610278611092565b6040516102859190611dd6565b60405180910390f35b610296611098565b6040516102a391906117bb565b60405180910390f35b6102c660048036038101906102c19190611674565b611126565b6040516102d391906116e2565b60405180910390f35b6102e4611165565b6040516102f19190611dd6565b60405180910390f35b610314600480360381019061030f9190611809565b61116f565b60405161032696959493929190611df1565b60405180910390f35b6002818154811061033f57600080fd5b906000526020600020016000915054906101000a900473ffffffffffffffffffffffffffffffffffffffff1681565b606060018054806020026020016040519081016040528092919081815260200182805480156103f257602002820191906000526020600020905b8160009054906101000a900473ffffffffffffffffffffffffffffffffffffffff1673ffffffffffffffffffffffffffffffffffffffff16815260200190600101908083116103a8575b5050505050905090565b6060806060600560008573ffffffffffffffffffffffffffffffffffffffff1673ffffffffffffffffffffffffffffffffffffffff16815260200190815260200160002060003373ffffffffffffffffffffffffffffffffffffffff1673ffffffffffffffffffffffffffffffffffffffff16815260200190815260200160002060009054906101000a900460ff1661049457600080fd5b6000600360008673ffffffffffffffffffffffffffffffffffffffff1673ffffffffffffffffffffffffffffffffffffffff16815260200190815260200160002090508060050181600601826007018280546104ef90611eab565b80601f016020809104026020016040519081016040528092919081815260200182805461051b90611eab565b80156105685780601f1061053d57610100808354040283529160200191610568565b820191906000526020600020905b81548152906001019060200180831161054b57829003601f168201915b5050505050925081805461057b90611eab565b80601f01602080910402602001604051908101604052809291908181526020018280546105a790611eab565b80156105f45780601f106105c9576101008083540402835291602001916105f4565b820191906000526020600020905b8154815290600101906020018083116105d757829003601f168201915b5050505050915080805461060790611eab565b80601f016020809104026020016040519081016040528092919081815260200182805461063390611eab565b80156106805780601f1061065557610100808354040283529160200191610680565b820191906000526020600020905b81548152906001019060200180831161066357829003601f168201915b50505050509050935093509350509193909250565b600660003373ffffffffffffffffffffffffffffffffffffffff1673ffffffffffffffffffffffffffffffffffffffff16815260200190815260200160002060009054906101000a900460ff16156106ec57600080fd5b6000600360003373ffffffffffffffffffffffffffffffffffffffff1673ffffffffffffffffffffffffffffffffffffffff168152602001908152602001600020905088816000019080519060200190610747929190611587565b5087816001019080519060200190610760929190611587565b5086816002019080519060200190610779929190611587565b5085816003019080519060200190610792929190611587565b50848160040190805190602001906107ab929190611587565b50838160050190805190602001906107c4929190611587565b50828160060190805190602001906107dd929190611587565b50818160070190805190602001906107f6929190611587565b50338160080160006101000a81548173ffffffffffffffffffffffffffffffffffffffff021916908373ffffffffffffffffffffffffffffffffffffffff1602179055506001339080600181540180825580915050600190039060005260206000200160009091909190916101000a81548173ffffffffffffffffffffffffffffffffffffffff021916908373ffffffffffffffffffffffffffffffffffffffff1602179055506001600660003373ffffffffffffffffffffffffffffffffffffffff1673ffffffffffffffffffffffffffffffffffffffff16815260200190815260200160002060006101000a81548160ff0219169083151502179055506001600560003373ffffffffffffffffffffffffffffffffffffffff1673ffffffffffffffffffffffffffffffffffffffff16815260200190815260200160002060003373ffffffffffffffffffffffffffffffffffffffff1673ffffffffffffffffffffffffffffffffffffffff16815260200190815260200160002060006101000a81548160ff0219169083151502179055506008600081548092919061099d90611f0b565b9190505550505050505050505050565b6060806060806060600560008773ffffffffffffffffffffffffffffffffffffffff1673ffffffffffffffffffffffffffffffffffffffff16815260200190815260200160002060003373ffffffffffffffffffffffffffffffffffffffff1673ffffffffffffffffffffffffffffffffffffffff16815260200190815260200160002060009054906101000a900460ff16610a4857600080fd5b6000600360008873ffffffffffffffffffffffffffffffffffffffff1673ffffffffffffffffffffffffffffffffffffffff16815260200190815260200160002090508060000181600101826002018360030184600401848054610aab90611eab565b80601f0160208091040260200160405190810160405280929190818152602001828054610ad790611eab565b8015610b245780601f10610af957610100808354040283529160200191610b24565b820191906000526020600020905b815481529060010190602001808311610b0757829003601f168201915b50505050509450838054610b3790611eab565b80601f0160208091040260200160405190810160405280929190818152602001828054610b6390611eab565b8015610bb05780601f10610b8557610100808354040283529160200191610bb0565b820191906000526020600020905b815481529060010190602001808311610b9357829003601f168201915b50505050509350828054610bc390611eab565b80601f0160208091040260200160405190810160405280929190818152602001828054610bef90611eab565b8015610c3c5780601f10610c1157610100808354040283529160200191610c3c565b820191906000526020600020905b815481529060010190602001808311610c1f57829003601f168201915b50505050509250818054610c4f90611eab565b80601f0160208091040260200160405190810160405280929190818152602001828054610c7b90611eab565b8015610cc85780601f10610c9d57610100808354040283529160200191610cc8565b820191906000526020600020905b815481529060010190602001808311610cab57829003601f168201915b50505050509150808054610cdb90611eab565b80601f0160208091040260200160405190810160405280929190818152602001828054610d0790611eab565b8015610d545780601f10610d2957610100808354040283529160200191610d54565b820191906000526020600020905b815481529060010190602001808311610d3757829003601f168201915b50505050509050955095509550955095505091939590929450565b60006001600560003373ffffffffffffffffffffffffffffffffffffffff1673ffffffffffffffffffffffffffffffffffffffff16815260200190815260200160002060008473ffffffffffffffffffffffffffffffffffffffff1673ffffffffffffffffffffffffffffffffffffffff16815260200190815260200160002060006101000a81548160ff02191690831515021790555060019050919050565b600760003373ffffffffffffffffffffffffffffffffffffffff1673ffffffffffffffffffffffffffffffffffffffff16815260200190815260200160002060009054906101000a900460ff1615610e6657600080fd5b6000600460003373ffffffffffffffffffffffffffffffffffffffff1673ffffffffffffffffffffffffffffffffffffffff168152602001908152602001600020905086816000019080519060200190610ec1929190611587565b5085816001019080519060200190610eda929190611587565b5084816002019080519060200190610ef3929190611587565b5083816003019080519060200190610f0c929190611587565b5082816004019080519060200190610f25929190611587565b5081816005019080519060200190610f3e929190611587565b50338160060160006101000a81548173ffffffffffffffffffffffffffffffffffffffff021916908373ffffffffffffffffffffffffffffffffffffffff1602179055506002339080600181540180825580915050600190039060005260206000200160009091909190916101000a81548173ffffffffffffffffffffffffffffffffffffffff021916908373ffffffffffffffffffffffffffffffffffffffff1602179055506001600760003373ffffffffffffffffffffffffffffffffffffffff1673ffffffffffffffffffffffffffffffffffffffff16815260200190815260200160002060006101000a81548160ff0219169083151502179055506009600081548092919061105090611f0b565b919050555050505050505050565b60095481565b6000600954905090565b60008054906101000a900473ffffffffffffffffffffffffffffffffffffffff1681565b60085481565b6060600280548060200260200160405190810160405280929190818152602001828054801561111c57602002820191906000526020600020905b8160009054906101000a900473ffffffffffffffffffffffffffffffffffffffff1673ffffffffffffffffffffffffffffffffffffffff16815260200190600101908083116110d2575b5050505050905090565b6001818154811061113657600080fd5b906000526020600020016000915054906101000a900473ffffffffffffffffffffffffffffffffffffffff1681565b6000600854905090565b606080606080606080600760008873ffffffffffffffffffffffffffffffffffffffff1673ffffffffffffffffffffffffffffffffffffffff16815260200190815260200160002060009054906101000a900460ff166111ce57600080fd5b6000600460008973ffffffffffffffffffffffffffffffffffffffff1673ffffffffffffffffffffffffffffffffffffffff168152602001908152602001600020905080600001816001018260020183600301846004018560050185805461123590611eab565b80601f016020809104026020016040519081016040528092919081815260200182805461126190611eab565b80156112ae5780601f10611283576101008083540402835291602001916112ae565b820191906000526020600020905b81548152906001019060200180831161129157829003601f168201915b505050505095508480546112c190611eab565b80601f01602080910402602001604051908101604052809291908181526020018280546112ed90611eab565b801561133a5780601f1061130f5761010080835404028352916020019161133a565b820191906000526020600020905b81548152906001019060200180831161131d57829003601f168201915b5050505050945083805461134d90611eab565b80601f016020809104026020016040519081016040528092919081815260200182805461137990611eab565b80156113c65780601f1061139b576101008083540402835291602001916113c6565b820191906000526020600020905b8154815290600101906020018083116113a957829003601f168201915b505050505093508280546113d990611eab565b80601f016020809104026020016040519081016040528092919081815260200182805461140590611eab565b80156114525780601f1061142757610100808354040283529160200191611452565b820191906000526020600020905b81548152906001019060200180831161143557829003601f168201915b5050505050925081805461146590611eab565b80601f016020809104026020016040519081016040528092919081815260200182805461149190611eab565b80156114de5780601f106114b3576101008083540402835291602001916114de565b820191906000526020600020905b8154815290600101906020018083116114c157829003601f168201915b505050505091508080546114f190611eab565b80601f016020809104026020016040519081016040528092919081815260200182805461151d90611eab565b801561156a5780601f1061153f5761010080835404028352916020019161156a565b820191906000526020600020905b81548152906001019060200180831161154d57829003601f168201915b505050505090509650965096509650965096505091939550919395565b82805461159390611eab565b90600052602060002090601f0160209004810192826115b557600085556115fc565b82601f106115ce57805160ff19168380011785556115fc565b828001600101855582156115fc579182015b828111156115fb5782518255916020019190600101906115e0565b5b509050611609919061160d565b5090565b5b8082111561162657600081600090555060010161160e565b5090565b6000604051905090565b600080fd5b600080fd5b6000819050919050565b6116518161163e565b811461165c57600080fd5b50565b60008135905061166e81611648565b92915050565b60006020828403121561168a57611689611634565b5b60006116988482850161165f565b91505092915050565b600073ffffffffffffffffffffffffffffffffffffffff82169050919050565b60006116cc826116a1565b9050919050565b6116dc816116c1565b82525050565b60006020820190506116f760008301846116d3565b92915050565b600081519050919050565b600082825260208201905092915050565b6000819050602082019050919050565b611732816116c1565b82525050565b60006117448383611729565b60208301905092915050565b6000602082019050919050565b6000611768826116fd565b6117728185611708565b935061177d83611719565b8060005b838110156117ae5781516117958882611738565b97506117a083611750565b925050600181019050611781565b5085935050505092915050565b600060208201905081810360008301526117d5818461175d565b905092915050565b6117e6816116c1565b81146117f157600080fd5b50565b600081359050611803816117dd565b92915050565b60006020828403121561181f5761181e611634565b5b600061182d848285016117f4565b91505092915050565b600081519050919050565b600082825260208201905092915050565b60005b83811015611870578082015181840152602081019050611855565b8381111561187f576000848401525b50505050565b6000601f19601f8301169050919050565b60006118a182611836565b6118ab8185611841565b93506118bb818560208601611852565b6118c481611885565b840191505092915050565b600060608201905081810360008301526118e98186611896565b905081810360208301526118fd8185611896565b905081810360408301526119118184611896565b9050949350505050565b600080fd5b600080fd5b7f4e487b7100000000000000000000000000000000000000000000000000000000600052604160045260246000fd5b61195d82611885565b810181811067ffffffffffffffff8211171561197c5761197b611925565b5b80604052505050565b600061198f61162a565b905061199b8282611954565b919050565b600067ffffffffffffffff8211156119bb576119ba611925565b5b6119c482611885565b9050602081019050919050565b82818337600083830152505050565b60006119f36119ee846119a0565b611985565b905082815260208101848484011115611a0f57611a0e611920565b5b611a1a8482856119d1565b509392505050565b600082601f830112611a3757611a3661191b565b5b8135611a478482602086016119e0565b91505092915050565b600080600080600080600080610100898b031215611a7157611a70611634565b5b600089013567ffffffffffffffff811115611a8f57611a8e611639565b5b611a9b8b828c01611a22565b985050602089013567ffffffffffffffff811115611abc57611abb611639565b5b611ac88b828c01611a22565b975050604089013567ffffffffffffffff811115611ae957611ae8611639565b5b611af58b828c01611a22565b965050606089013567ffffffffffffffff811115611b1657611b15611639565b5b611b228b828c01611a22565b955050608089013567ffffffffffffffff811115611b4357611b42611639565b5b611b4f8b828c01611a22565b94505060a089013567ffffffffffffffff811115611b7057611b6f611639565b5b611b7c8b828c01611a22565b93505060c089013567ffffffffffffffff811115611b9d57611b9c611639565b5b611ba98b828c01611a22565b92505060e089013567ffffffffffffffff811115611bca57611bc9611639565b5b611bd68b828c01611a22565b9150509295985092959890939650565b600060a0820190508181036000830152611c008188611896565b90508181036020830152611c148187611896565b90508181036040830152611c288186611896565b90508181036060830152611c3c8185611896565b90508181036080830152611c508184611896565b90509695505050505050565b60008115159050919050565b611c7181611c5c565b82525050565b6000602082019050611c8c6000830184611c68565b92915050565b60008060008060008060c08789031215611caf57611cae611634565b5b600087013567ffffffffffffffff811115611ccd57611ccc611639565b5b611cd989828a01611a22565b965050602087013567ffffffffffffffff811115611cfa57611cf9611639565b5b611d0689828a01611a22565b955050604087013567ffffffffffffffff811115611d2757611d26611639565b5b611d3389828a01611a22565b945050606087013567ffffffffffffffff811115611d5457611d53611639565b5b611d6089828a01611a22565b935050608087013567ffffffffffffffff811115611d8157611d80611639565b5b611d8d89828a01611a22565b92505060a087013567ffffffffffffffff811115611dae57611dad611639565b5b611dba89828a01611a22565b9150509295509295509295565b611dd08161163e565b82525050565b6000602082019050611deb6000830184611dc7565b92915050565b600060c0820190508181036000830152611e0b8189611896565b90508181036020830152611e1f8188611896565b90508181036040830152611e338187611896565b90508181036060830152611e478186611896565b90508181036080830152611e5b8185611896565b905081810360a0830152611e6f8184611896565b9050979650505050505050565b7f4e487b7100000000000000000000000000000000000000000000000000000000600052602260045260246000fd5b60006002820490506001821680611ec357607f821691505b602082108103611ed657611ed5611e7c565b5b50919050565b7f4e487b7100000000000000000000000000000000000000000000000000000000600052601160045260246000fd5b6000611f168261163e565b91507fffffffffffffffffffffffffffffffffffffffffffffffffffffffffffffffff8203611f4857611f47611edc565b5b60018201905091905056fea264697066735822122037c06ce20ccc4edacf3dd9603cca4e9060e960b08af38de926db87885d79eadc64736f6c634300080d0033",
  "immutableReferences": {},
  "source": "// SPDX-License-Identifier: GPL-3.0\r\n\r\npragma solidity >=0.4.22 <0.9.0;\r\n\r\ncontract data {\r\n    struct Patients{\r\n        string ic;\r\n        string name;\r\n        string phone;\r\n        string gender;\r\n        string dob;\r\n        string bloodgroup;\r\n        string allergies;\r\n        string medication;\r\n        address addr;\r\n        uint date;\r\n    }\r\n    struct Doctors{\r\n        string ic;\r\n        string name;\r\n        string phone;\r\n        string gender;\r\n        string dob;\r\n        string qualification;\r\n        address addr;\r\n        uint date;\r\n    }\r\n    address public owner;\r\n    address[] public patientList;\r\n    address[] public doctorList;\r\n\r\n    mapping(address => Patients) patients;\r\n    mapping(address => Doctors) doctors;\r\n\r\n    mapping(address=>mapping(address=>bool)) isApproved;\r\n    mapping(address => bool) isPatient;\r\n    mapping(address => bool) isDoctor;\r\n\r\n    uint256 public patientCount = 0;\r\n    uint256 public doctorCount = 0;\r\n\r\n    constructor(){\r\n        owner = msg.sender;\r\n    }\r\n\r\n    function setDetails(string memory _ic, string memory _name, string memory _phone, string memory _gender, string memory _dob, string memory _bloodgroup, string memory _allergies, string memory _medication) public {\r\n        require(!isPatient[msg.sender]);\r\n        Patients storage p = patients[msg.sender];\r\n        \r\n        p.ic = _ic;\r\n        p.name = _name;\r\n        p.phone = _phone;\r\n        p.gender = _gender;\r\n        p.dob = _dob;\r\n        p.bloodgroup = _bloodgroup;\r\n        p.allergies = _allergies;\r\n        p.medication = _medication;\r\n        p.addr = msg.sender;\r\n\r\n        patientList.push(msg.sender);\r\n        isPatient[msg.sender] = true;\r\n        isApproved[msg.sender][msg.sender] = true;\r\n        patientCount++;\r\n        \r\n    }\r\n\r\n    function setDoctor(string memory _ic, string memory _name, string memory _phone, string memory _gender, string memory _dob, string memory _qualification) public {\r\n        require(!isDoctor[msg.sender]);\r\n        Doctors storage d = doctors[msg.sender];\r\n        \r\n        d.ic = _ic;\r\n        d.name = _name;\r\n        d.phone = _phone;\r\n        d.gender = _gender;\r\n        d.dob = _dob;\r\n        d.qualification = _qualification;\r\n        d.addr = msg.sender;\r\n        \r\n        doctorList.push(msg.sender);\r\n        isDoctor[msg.sender] = true;\r\n        doctorCount++;\r\n    }\r\n\r\n    function givePermission(address _address) public returns(bool success) {\r\n        isApproved[msg.sender][_address] = true;\r\n        return true;\r\n    }\r\n    function getPatients() public view returns(address[] memory) {\r\n        return patientList;\r\n    }\r\n    function getDoctors() public view returns(address[] memory) {\r\n        return doctorList;\r\n    }\r\n\r\n    function searchPatientDemographic(address _address) public view returns(string memory, string memory, string memory, string memory, string memory) {\r\n        require(isApproved[_address][msg.sender]);\r\n        \r\n        Patients storage p = patients[_address];\r\n        \r\n        return (p.ic, p.name, p.phone, p.gender, p.dob);\r\n    }\r\n\r\n    function searchPatientMedical(address _address) public view returns(string memory, string memory, string memory) {\r\n        require(isApproved[_address][msg.sender]);\r\n        \r\n        Patients storage p = patients[_address];\r\n        \r\n        return ( p.bloodgroup, p.allergies, p.medication);\r\n    }\r\n\r\n    function searchDoctor(address _address) public view returns(string memory, string memory, string memory, string memory, string memory, string memory) {\r\n        require(isDoctor[_address]);\r\n        \r\n        Doctors storage d = doctors[_address];\r\n        \r\n        return (d.ic, d.name, d.phone, d.gender, d.dob, d.qualification);\r\n    }\r\n\r\n    function getPatientCount() public view returns(uint256) {\r\n        return patientCount;\r\n    }\r\n    function getDoctorCount() public view returns(uint256) {\r\n        return doctorCount;\r\n    }\r\n\r\n}",
  "sourcePath": "D:\\trufflenew\\contracts\\data.sol",
  "compiler": {
    "name": "solc",
    "version": "0.8.13+commit.abaa5c0e.Emscripten.clang"
  },
  "schemaVersion": "3.4.14",
  "updatedAt": "2023-07-22T04:18:13.162Z",
  "networkType": "ethereum",
  "devdoc": {
    "kind": "dev",
    "methods": {},
    "version": 1
  },
  "userdoc": {
    "kind": "user",
    "methods": {},
    "version": 1
  }
}